:020000040800F2
:10000000F05700200101000841300008C901000834
:100010003D300008790700084F3D0008000000004F
:1000200000000000000000000000000013010008B4
:100030007D07000800000000530100087539000822
:100040001B0100081B0100081B01000825340008E3
:100050001B0100081B0100081B0100081B01000810
:100060001B0100081B0100081B0100081B01000800
:100070001B0100081B0100081B0100081B010008F0
:100080001B0100081B0100081B0100081B010008E0
:100090001B0100081B0100081B0100081B010008D0
:1000A0001B010008B53A00081B0100081B010008ED
:1000B000C53A00081B0100081B0100081B010008CD
:1000C0001B0100081B0100081B0100081B010008A0
:1000D0001B0100081B0100081B0100081B01000890
:1000E0001B010008B93200081B010008DFF80CD022
:1000F00000F014F90048004741030008F0570020C1
:100100000648804706480047FEE7FEE7FEE7FEE7B1
:10011000FEE7FEE7FEE7FEE7FEE7FEE7B13A00088E
:10012000ED000008EFF3108072B6704780F310887E
:100130007047324A1368012B04D04FF0010313605B
:100140002F4A10602F4A11602F484FF080510160F4
:100150007047EFF3108272B62848016891B14FF0F2
:10016000000101602648016829B1EFF3098121E906
:10017000F00F00680160234909680968B1E8F00FD1
:1001800081F3098882F310884EF0040E70471D49F0
:1001900008601B494FF00000086018494FF001004B
:1001A00008601A481A49D0F8002041EA02010160AB
:1001B00015484FF08051016016480068006880F3D0
:1001C000088861B662B670471EF0040F0CBFEFF3EB
:1001D0000880EFF3098020E9F00F40F804ED1EF0ED
:1001E000040F0CBF80F3088880F3098800B505F080
:1001F000EBFB5DF804EB4EF0040E704700010020AD
:10020000F8000020FC00002004ED00E020ED00E0FC
:100210000000FFFF08ED00E0202A04DB203A21FA6D
:1002200002F00021704721FA02F3D040C2F120020F
:10023000914008431946704740EA01039B0703D0E9
:1002400009E008C9121F08C0042AFAD203E011F815
:10025000013B00F8013B521EF9D27047D2B201E0D7
:1002600000F8012B491EFBD270470022F6E710B5BB
:1002700013460A4604461946FFF7F0FF204610BD14
:10028000421E12F8013F002BFBD111F8013B02F88E
:10029000013B002BF9D1704710B5044604E00B7800
:1002A00000F8013B03B1491C521EF8D2204610BD94
:1002B000421C10F8011B0029FBD1801A704703462D
:1002C00011F8012B00F8012B002AF9D118467047CC
:1002D00030B505460020034600E05B1C934205D282
:1002E000EC5CC85C201A01D1002CF6D130BD30B5D1
:1002F0000B46014600202022012409E021FA02F5E4
:100300009D4205D303FA02F5491B04FA02F528447D
:10031000151EA2F10102F1DC30BD0000064C074DB4
:1003200006E0E06840F0010394E8070098471034C5
:10033000AC42F6D3FFF7DEFEF87C0008187D00081B
:1003400010B506F0CDFD002010BD000030B502460E
:100350000B460024002103E0002043F82100491C43
:100360000829F9D3002106E052F82100042801D120
:10037000012030BD491C1329F6D300210FE052F8AB
:100380002100012803D052F82100022801D1641C69
:1003900004E052F82100032800D1A41C491C5B484A
:1003A00000688142EBD304F0010068B95748006847
:1003B00052F82000012805D05448006852F8200067
:1003C00003280ED10220D4E75048006852F82000DC
:1003D00028B14E48006852F82000022801D10220BE
:1003E000C7E7002409210FE052F82100012803D0BB
:1003F00052F82100022801D1641C04E052F82100C7
:10040000032800D1A41C491C414800688142EBD359
:1004100004F0010068B93E48006852F82000012845
:1004200005D03B48006852F8200003280ED1032075
:100430009FE73748006852F8200028B13448006828
:1004400052F82000022801D1032092E7106810B969
:10045000012018600AE01068012802D115201860F8
:1004600004E01068022801D129201860D2E90205B1
:1004700005EB8000586010690501506905EB8000AC
:10048000956928449860D2E9070505EB8000D8609B
:10049000506A10B1506A012802D10020186107E0AB
:1004A000506A022802D0506A032801D10120186145
:1004B000906A0501D06A05EB8000156B28445861ED
:1004C000D2E90D0505EB80009861906C10B1906C3D
:1004D000012808D1D06B0501106C05EB8000556C2C
:1004E0002844D8610FE0906C022802D0906C032859
:1004F00009D14025D06B05EB0015106C05EB800091
:10050000556C2844D861042033E70000080000201F
:100510000C0000201CB5F2E07948006830B10020E2
:100520007749086077A003F015FCE5E07A48006899
:100530000028FAD0002078490860784908600CE06B
:100540007748764A126850F8221076A003F002FC31
:1005500072480068401C71490860704800681328A0
:10056000EED371A003F0F6FB70496D48FFF7EEFE85
:100570006A49086008460068012803D16CA003F0AE
:10058000E9FBB9E065480068022803D16CA003F0DC
:10059000E1FBB1E061480068032803D16EA003F0DD
:1005A000D9FBA9E05D4800680428BED10020019075
:1005B00000905E49096919B15C4949680C3101E054
:1005C0005A494968084606F0F8FC8DF80400574976
:1005D000886806F0F2FC8DF8050054480068133076
:1005E0003C21B0FBF1F201FB1204204606F0E5FCD1
:1005F0008DF806004D49C86906F0DFFC8DF8030050
:100600004A49486906F0D9FC8DF8020047488069DC
:100610000D2838D2DFE800F037070B0F13171B1F28
:1006200023272B2F330001208DF801002BE002201F
:100630008DF8010027E003208DF8010023E004205D
:100640008DF801001FE005208DF801001BE0062059
:100650008DF8010017E007208DF8010013E0082055
:100660008DF801000FE009208DF801000BE010204B
:100670008DF8010007E011208DF8010003E0122041
:100680008DF8010000BF00BF2848C068082821D2AB
:10069000DFE800F02004080C1014181C01208DF86D
:1006A000000017E002208DF8000013E003208DF811
:1006B00000000FE004208DF800000BE005208DF80D
:1006C000000007E006208DF8000003E000208DF810
:1006D000000000BF00BF012201A9264801F052FD21
:1006E00008B100F04CF801226946224801F0CEFC26
:1006F00008B100F044F800BF0A2006F009F80BE743
:1007000000000020BCECB2E2B5BDC1CBC6F0CABC53
:10071000CEBB0D0A000000000400002028000020CD
:1007200024050020256420000D0A0000700500202B
:10073000B0FCBAACCEDED0A7CAFDBEDD0D0A00000B
:10074000302D38CEBBD3D0D0A7CAFDBEDDBCECD196
:10075000E9B4EDCEF30D0A00392D3138CEBBD3D03C
:10076000D0A7CAFDBEDDBCECD1E9B4EDCEF30D0AD5
:1007700000000000800E002000BFFEE7704772B648
:1007800000BFFEE70022054BDA61054A126942F01C
:100790000102034B1A61018070470000E81300203A
:1007A0000020024000201E49C96801F0100139B143
:1007B0001C49C96941F002011A4AD16140F0100098
:1007C0001749C96801F0040139B11649C96941F0F6
:1007D0000101144AD16140F004001149C96901F0D6
:1007E000010169B10F49C96941F004010D4AD161A4
:1007F00000BF0B49C96921F00101094AD16100BF5D
:1008000000BF40F20111884206D10549C96921F0B3
:100810000101034AD16101E00149C86000BF70478E
:1008200000200240E813002070B5044600F08AFB67
:10083000054609E0601C38B124B100F083FB401B81
:10084000A04201D9032070BD1248C06800F0010029
:100850000028EFD10F48C06800F0200020B100BF91
:1008600020200C49C86000BF0A48C06800F0100092
:1008700048B90848C06900F0010020B90548C068BF
:1008800000F0040018B1FFF78DFF0120DBE7002026
:10089000D9E70000002002400021074AD161074942
:1008A000096941F00201054A11611146486109696F
:1008B00041F0400111617047C80F00200020024044
:1008C0002DE9F04106460F4614461D46DDF8188016
:1008D00018E0102C06D143462A463946304600F02F
:1008E00069F805E0182C03D0202C01D0BDE8F08178
:1008F0003019C6B2C4F18000B04202DA00263819BD
:10090000C7B2AD1C28780028E3D100BFEEE7000095
:100910002DE9F84F06460F4691469A46DDF828B075
:100920004FF0000800240025A9F1200000F0FF0886
:100930007F2E02DD0026B81CC7B2BAF1100F30D1ED
:1009400000242BE0BBF1000F05D004EB0810184980
:10095000085C009006E004EB08101549085CC043F1
:10096000C0B20090002515E0802028410099084081
:1009700038B13A19D1B27219D0B2012202F022FC78
:1009800006E03A19D1B27219D0B2002202F01AFC74
:10099000681CC5B2082DE7DB601CC4B2102CD1DB8B
:1009A00001E0BDE8F88F02F061FB00BFF9E700004D
:1009B0000A7100082DE9FF4F83B0804689469246B0
:1009C0000C200190002562E005EB0510344911F878
:1009D00010009AF80010884257D105EB05103049F5
:1009E00001EB400040789AF8011088424DD1002474
:1009F00048E0069840B105EB0510294901EB40009D
:100A0000801C005D029009E005EB0510244901EB14
:100A10004000801C005DC043C0B2029000262DE063
:100A2000802030410299084098B1274604EBD772E4
:100A300009EB6202D1B2A34604EBDB725210A4EBC5
:100A4000420208EBC2023244D0B2012202F0BAFBE9
:100A500012E0274604EBD77209EB6202D1B2A3463B
:100A600004EBDB725210A4EB420208EBC2023244E8
:100A7000D0B2002202F0A6FB701CC6B2082ECFDB5B
:100A8000601CC4B2202CB4DB04E0681CC5B2019821
:100A9000854299DB00BF02F0E9FA07B0BDE8F08FAC
:100AA000FA7600082DE9F84F0546894616461C4699
:100AB000DDF828A00027102C05D1204604EBD071CA
:100AC000C1F347080BE0082C07D1204604EBD07196
:100AD0004910891C01F0FF0801E0BDE8F88F13E020
:100AE000CDF800A0F25D234649462846FFF710FFE7
:100AF00005EB0800C5B2782D04DD002509EB0400E4
:100B000000F0FF09781CC7B2F05D0028E8D100BFF3
:100B1000E3E700000348006940F0800001490861F4
:100B200000207047002002402DE9FE4F05468B460D
:100B300017469846012600240020029000BF244852
:100B4000007E012802D10220BDE8FE8F012020494D
:100B5000087600BF4CF25030FFF766FE064686BBB3
:100B6000012D02D10120029006E0022D02D10220C7
:100B7000029001E00420029000241EE02201B94608
:100B8000C24648465146FFF747FB80B2019002201B
:100B900000FB04B000900199FFF7F4FD4CF25030D7
:100BA000FFF742FE06460B48006920F001000949A4
:100BB000086106B104E0601CC4B202988442DDDB27
:100BC00000BF00BF00200249087600BF3046BBE7E7
:100BD000E81300200020024000200849096901F0C4
:100BE000800151B10649054A5160064951601146DC
:100BF000096901F0800101B1012070470020024025
:100C000023016745AB89EFCD2DE9F8470346002264
:100C100094466EE14FF0010808FA02F4D1F8008022
:100C200008EA0400A0427DD1DFF8DCA2D1F80480FC
:100C3000A8EB0A09D0453AD014DCB8F1030F50D024
:100C400009DCB8F1000F31D0B8F1010F1CD0B8F1B8
:100C5000020F49D120E0B8F1110F18D0B8F1120FEE
:100C600042D11EE0B9F5881F25D006DCB9F5803FDA
:100C700020D0B9F5801F37D11AE0B9F5001F18D080
:100C8000B9F5041F30D117E0D1F80CC02DE0D1F830
:100C90000C8008F1040C28E0D1F80C8008F1080C55
:100CA00023E0D1F80C8008F10C0C1EE000BF00BF5F
:100CB00000BF00BF00BF00BFD1F80880B8F1000F2F
:100CC00002D14FF0040C0BE0D1F80880B8F1010F0D
:100CD00003D14FF0080C1C6102E04FF0080C5C617E
:100CE00003E04FF0000C00E000BF00BFFF2801D878
:100CF000984601E003F104084646FF2802D84FEA6F
:100D0000820803E0A2F108084FEA88084746D6F8AF
:100D100000804FF00F0909FA07F928EA09080CFAD0
:100D200007F900E088E048EA0908C6F80080D1F831
:100D3000048008F08058B8F1805F7DD100BFDFF8F3
:100D4000CC81D8F8188048F00108DFF8C091C9F8C4
:100D50001880C846D8F8188008F00108CDF800803F
:100D600000BF00BF4FEAB9384FEA920958F829503E
:100D70004FEA82784FEA18794FF00F0808FA09F81D
:100D800025EA0805DFF88881434502D14FF00008C5
:100D900016E0DFF88081434502D14FF001080FE0F3
:100DA000DFF87481434502D14FF0020808E0DFF814
:100DB0006C81434502D14FF0030801E04FF0040875
:100DC0004FEA82794FEA197908FA09F848EA0505E5
:100DD000DFF84C814FEA920948F82950D1F8048095
:100DE00008F48018B8F5801F0AD1DFF83881D8F8E8
:100DF000008048EA0008DFF82C91C9F8008009E07B
:100E0000DFF82081D8F8008028EA0008DFF8149184
:100E1000C9F80080D1F8048008F40018B8F5001F64
:100E200010D1DFF8008108F10408D8F8008048EA02
:100E30000008DFF8F09000E05AE009F10409C9F871
:100E400000800DE0DFF8DC8008F10408D8F80080AD
:100E500028EA0008DFF8CC9009F10409C9F80080FD
:100E6000D1F8048008F40038B8F5003F0ED1DFF85F
:100E7000B480A8F10408D8F8008048EA0008DFF838
:100E8000A490A9F10409C9F800800DE0DFF894806E
:100E9000A8F10408D8F8008028EA0008DFF8849058
:100EA000A9F10409C9F80080D1F8048008F4803859
:100EB000B8F5803F0ED1DFF86C80A8F10808D8F8AB
:100EC000008048EA0008DFF85C90A9F10809C9F839
:100ED00000800DE0DFF84C80A8F10808D8F8008009
:100EE00028EA0008DFF83C90A9F10809C9F8008059
:100EF000521CD1F8008028FA02F8B8F1000F7FF4F4
:100F000089AEBDE8F8870000000011100010024013
:100F100000080140000C0140001001400014014095
:100F20000800014008040140024693680B400BB1E1
:100F3000012000E0002070470AB1016101E00B04CC
:100F4000036170470148006870470000740000208A
:100F500010B50848006840F01000064908600320FA
:100F600000F0C8F80F2000F007F800F055F8002056
:100F700010BD000000200240F0B587B004460026F6
:100F80000027002500BF1F48806940F400601D490C
:100F900088610846806900F40060009000BF00BFCF
:100FA00001A902A800F09CFA00F0D2FA0646164801
:100FB000B6FBF0F0471E15481549086040F2E731CE
:100FC0001348C1604760002101618160816101F0C7
:100FD00047FB054695B90E4801F096FB05466DB9ED
:100FE000192000F039F8102C07D2002221461920D0
:100FF00000F042F80748046000E00125284607B0E9
:10100000F0BD00000010024040420F00002C0140E3
:101010007C0F00207800002008B500BF0D488069D3
:1010200040F001000B4988610846806900F001002A
:10103000009000BF00BF00BF0846C06940F080506C
:10104000C8610846C06900F08050009000BF00BF32
:1010500008BD00000010024001460846002809DBD8
:1010600000F01F0301229A4043099B0003F1E02393
:10107000C3F8002100BF70472DE9F05F80460D46A0
:101080001646002702F08AFE074639462A463346AE
:1010900001F00700C0F1070ABAF1040F02D94FF0BE
:1010A000040A01E0C0F1070AD14600F1040ABAF1CE
:1010B000070F02D24FF0000A01E0A0F1030AD44664
:1010C0004FF0010A0AFA09FAAAF1010A0AEA020A29
:1010D0000AFA0CFA4FF0010B0BFA0CFBABF1010B07
:1010E0000BEA030B4AEA0B042146404602F05EFE7F
:1010F000BDE8F09F00BF00F00702064B19684FF6ED
:10110000FF031940044B0B4343EA0221014B1960D2
:1011100000BF70470CED00E00000FA050120014916
:101120000862704700000E422DE9F04706464FF076
:101130000008002500270024A146012E31D0022EF0
:1011400056D0102E5FD132484468006800F080709D
:1011500008B33048C4F38341475C04F4803078B16D
:101160002B484068C0F340402B4911F8008004F43C
:10117000803040B12948B0FBF8F000FB07F502E0F1
:10118000274807FB00F52248406800F48000B0F5CE
:10119000800F01D1A94603E068000321B0FBF1F9FB
:1011A00032E01B48046A04F44070B0F5807F05D13A
:1011B00004F0020010B14FF4004918E004F440704C
:1011C000B0F5007F07D11248406A00F0020010B16C
:1011D00049F640490BE004F44070B0F5407F06D179
:1011E0000B48006800F4003008B14FF224490BE0CE
:1011F00000F0AEF906494968C1F38131491C490044
:10120000B0FBF1F900E000BF00BF4846BDE8F08741
:1012100000100240B1780008C178000800127A007E
:1012200000093D00F8B5044600260025207800F0AE
:10123000010000286BD000274348C06900F08050AF
:1012400070B900BF4048C06940F080503E49C86155
:101250000846C06900F08050009000BF00BF012721
:101260003A48006800F48070B0B93848006840F42B
:10127000807036490860FFF765FE064606E0FFF716
:1012800061FE801B642801D90320F8BD2F48006847
:1012900000F480700028F2D02B48006A00F44075FA
:1012A0002DB3A08800F44070A84220D02648006AE0
:1012B00020F440750120264908600020086022487B
:1012C000056205F0010090B1FFF73CFE064608E01C
:1012D000FFF738FE801B41F28831884201D9032094
:1012E000D3E71948006A00F002000028F0D0164841
:1012F000006A20F440706168084313490862012FB6
:1013000004D10846C06920F08050C86100BF207831
:1013100000F00200022807D10B48406820F440404A
:10132000A168084308494860207800F010001028A0
:1013300007D10548406820F48000E168084302496D
:1013400048600020A1E7000000100240007000404B
:101350004004424270B504460D460CB9012070BDF0
:101360005A48006800F00700A8420ED257480068AB
:1013700020F007002843554908600846006800F03F
:101380000700A84201D00120E9E7207800F0020020
:1013900002281DD1207800F00400042805D14C4813
:1013A000406840F4E0604A494860207800F0080056
:1013B000082805D14648406840F4605044494860D8
:1013C0004348406820F0F000A16808434049486065
:1013D000207800F0010078B36068012806D13C480D
:1013E000006800F4003090B90120B8E76068022876
:1013F00006D13748006800F0007040B90120AEE720
:101400003348006800F0020008B90120A7E730481F
:10141000406820F00300616808432D494860FFF7E9
:1014200091FD064609E0FFF78DFD801B41F28831F2
:10143000884202D9032092E707E02548406800F07F
:101440000C006168B0EB810FEDD12048006800F01E
:101450000700A8420ED91D48006820F00700284365
:101460001A4908600846006800F00700A84201D049
:10147000012074E7207800F00400042807D1144804
:10148000406820F4E060E168084311494860207832
:1014900000F00800082808D10D48406820F460508A
:1014A000216940EAC1000A49486000F061F8084932
:1014B0004968C1F30311074A515CC84006490860F6
:1014C00006480068FFF758FD002048E7002002406A
:1014D00000100240C378000880000020780000203F
:1014E0000F2202600D4A526802F0030242600B4A6A
:1014F000526802F0F0028260084A526802F4E06228
:10150000C260064A526802F46052D2080261044A7C
:10151000126802F007020A607047000000100240E3
:101520000020024001480068704700008000002051
:1015300000B5FFF7F7FF04494968C1F30221034AE8
:10154000515CC84000BD000000100240D378000884
:1015500000B5FFF7E7FF04494968C1F3C221034A18
:10156000515CC84000BD000000100240D378000864
:1015700070B500210022002400230020134D69686B
:1015800001F00C05F5B1042D02D0082D19D101E0B0
:101590000F4819E00F4DC1F38346AB5D01F4803570
:1015A00055B10A4D6D68C5F340450B4E725D084D4F
:1015B0005D43B5FBF2F402E0084D03FB05F4204661
:1015C00002E000BF024800BF00BF70BD0010024033
:1015D00000127A009F780008AF78000800093D00EB
:1015E000F8B504460CB90120F8BD207800F00100E0
:1015F000002878D0F848406800F00C0004280CD08F
:10160000F548406800F00C00082811D1F248406805
:1016100000F48030B0F5803F0AD1EF48006800F454
:10162000003000285FD0606800285CD10120DBE733
:1016300000BF6068B0F5803F06D1E748006840F41D
:101640008030E549086028E0606858B9E2480068E1
:1016500020F48030E04908600846006820F48020CB
:1016600008601AE06068B0F5A02F0BD1DA48006876
:1016700040F48020D84908600846006840F4803073
:1016800008600AE0D448006820F48030D24908603D
:101690000846006820F48020086000BF606888B1B8
:1016A000FFF750FC054606E0FFF74CFC401B6428A2
:1016B00001D9032098E7C848006800F400300028EA
:1016C000F2D010E0FFF73EFC054606E0FFF73AFCDB
:1016D000401B642801D9032086E7BF48006800F456
:1016E00000300028F2D1207800F00200022857D103
:1016F000B948406800F00C0050B1B748406800F0AD
:101700000C00082818D1B448406800F4803098B91B
:10171000B148006800F0020020B12069012801D022
:10172000012061E7AC48006820F0F800616940EAF8
:10173000C100A949086033E02069E8B10120A74948
:101740000860FFF7FFFB054606E0FFF7FBFB401BC9
:10175000022801D9032047E79F48006800F00200F3
:101760000028F2D09C48006820F0F800616940EA47
:10177000C1009949086013E0002098490860FFF70C
:10178000E1FB054606E0FFF7DDFB401B022801D91F
:10179000032029E79048006800F002000028F2D1F9
:1017A000207800F0080008282DD1A069B8B10120E8
:1017B0008B490860FFF7C6FB054606E0FFF7C2FB52
:1017C000401B022801D903200EE78348406A00F03D
:1017D00002000028F2D0012001F05AFD13E00020A1
:1017E0007F490860FFF7AEFB054606E0FFF7AAFB5E
:1017F000401B022801D90320F6E67748406A00F032
:1018000002000028F2D1207800F00400042873D1EF
:1018100000277148C06900F0805070B900BF6E4861
:10182000C06940F080506C49C8610846C06900F04A
:101830008050009000BF00BF01276A48006800F494
:101840008070B0B96748006840F4807065490860EE
:10185000FFF778FB054606E0FFF774FB401B6428A2
:1018600001D90320C0E65F48006800F480700028BA
:10187000F2D000BFE068012806D15748006A40F066
:1018800001005549086227E0E06858B95248006AEB
:1018900020F00100504908620846006A20F0040068
:1018A000086219E0E06805280BD14B48006A40F057
:1018B0000400494908620846006A40F001000862D5
:1018C0000AE04548006A20F00100434908620846E2
:1018D000006A20F00400086200BFE068A0B1FFF7D2
:1018E00031FB054609E0FFF72DFB401B41F2883133
:1018F000884202D9032077E622E03748006A00F0E8
:1019000002000028EFD012E0FFF71CFB054608E0BC
:10191000FFF718FB401B41F28831884201D90320B0
:1019200062E62D48006A00F002000028F0D1012F85
:1019300005D12948C06920F080502749C86100BFFF
:10194000E069C8B32448406800F00C00082860D063
:10195000E069022848D1002020490866FFF7F2FA22
:10196000054606E0FFF7EEFA401B022801D90320E6
:101970003AE61948006800F000700028F2D1206AA9
:10198000B0F5803F07D11448406820F40030A168CA
:10199000084311494860D4E9080108430E494968E1
:1019A00021F4741108430C49486001200B49086672
:1019B000FFF7C8FA054607E03DE0FFF7C3FA401B12
:1019C000022801D903200FE60348006800F00070E8
:1019D0000028F2D02FE00000001002400000424238
:1019E0008004424200700040002014490866FFF75E
:1019F000A9FA054606E0FFF7A5FA401B022801D91F
:101A00000320F1E50E48006800F000700028F2D1D4
:101A100011E0E069012800D1E6E50948466806F4CE
:101A20008031206A814204D106F47011606A8142DB
:101A300001D00120D8E50020D6E500000000424298
:101A4000001002407047704710B5044620680068D7
:101A500000F00100F0B12068406800F00100C8B15A
:101A600020684068C0F3800048B12046FFF7EBFFD4
:101A70006FF00400216848600420607404E0204690
:101A8000FFF7E0FF012060742068406820F001004B
:101A90002168486010BD00002DE9F04107466F48FD
:101AA0000068012842D16EA002F054F900222021E2
:101AB0007248FFF741FA012240217048FFF73CFAD3
:101AC000002280216D48FFF737FA6DA002F042F93D
:101AD0006EA002F03FF970A002F03CF960A002F0A5
:101AE00039F902205D4908606E488078851C6D4890
:101AF000447806783C2D11DB641C3C2C07DB761CFB
:101B00003C2096FBF0F100FB1160664908703C2018
:101B100094FBF0F100FB1140624948703C2095FBBA
:101B2000F0F100FB11505F4988708FE04B4800686E
:101B3000022843D14AA002F00DF9002220214F488B
:101B4000FFF7FAF9002240214C48FFF7F5F901228E
:101B500080214A48FFF7F0F949A002F0FBF852A0B3
:101B600002F0F8F853A002F0F5F83DA002F0F2F808
:101B700003203A4908604B48807800F10A0549483B
:101B8000447806783C2D11DB641C3C2C07DB761C6A
:101B90003C2096FBF0F100FB1160424908703C20AC
:101BA00094FBF0F100FB11403E4948703C2095FB4E
:101BB000F0F100FB11503B49887047E0274800686E
:101BC000032843D126A002F0C5F8012220212B488A
:101BD000FFF7B2F9002240212848FFF7ADF90022B3
:101BE00080212648FFF7A8F935A002F0B3F82EA00F
:101BF00002F0B0F828A002F0ADF819A002F0AAF89F
:101C00000120164908602748807800F1080525481A
:101C1000447806783C2D11DB641C3C2C07DB761CD9
:101C20003C2096FBF0F100FB11601E4908703C203F
:101C300094FBF0F100FB11401A4948703C2095FBE1
:101C4000F0F100FB11501749887000BF00221549C0
:101C5000384600F095F9BDE8F081000064000020EE
:101C60003D3D3D3D3D3D3D3D3D3D3D3D3D3D3D3DA4
:101C70003D3D3D3D3D3D0D0A000000000008014096
:101C8000C2CCA3BAC3F00D0A00000000BBC6A3BAC1
:101C9000C1C10D0A00000000BAECA3BAC3F00D0ADE
:101CA000000000005C000020BBC6A3BAC3F00D0A10
:101CB00000000000BAECA3BAC1C10D0A0000000088
:101CC000C2CCA3BAC1C10D0A0000000010B5044681
:101CD00020680068C0F3400068B120684068C0F325
:101CE000400040B12046FFF7D7FE2068406820F052
:101CF0000200216848604FF400300249086001206A
:101D0000607410BD14040140F8B505460C46164633
:101D10000020009005B10CB90120F8BD00226946F1
:101D2000284600F01AF808B10120F6E7287B207059
:101D3000E87BE070687B6070A87BA0705EB1E078A3
:101D400001F0CDFAE070607801F0C9FA6070A07817
:101D500001F0C5FAA0700020DFE72DE9F0478046CA
:101D60000C46914600250026AA460027B8F1000F30
:101D700000D014B90120BDE8F087D8F80000406811
:101D8000C0F3800008B10120F5E7404601F077FB81
:101D900005464FF46160B5FBF0F7B5FBF0F100FBD1
:101DA00011503C21B0FBF1F060704FF46160B5FB65
:101DB000F0F100FB11503C21B0FBF1F201FB1200ED
:101DC000A070182F39D31820B7FBF0FAB7FBF0F149
:101DD00000FB11702070404601F045FB0646701C68
:101DE00018B1AE4201D9761B01E04FF0FF360AEB85
:101DF0004A00C000C0EB4011C1EB0020A5EB00156C
:101E00002946404601F0AEFB08B10120B3E7701C43
:101E100038B12E443146404601F08DFB40B10120DF
:101E2000A9E73146404601F086FB08B10120A2E750
:101E30005146404601F060FA00E02770B9F1000F0A
:101E40000BD0207801F04BFA2070607801F047FA4F
:101E50006070A07801F043FAA07000208BE70000CA
:101E600070B5044600250CB9012070BD607C20B916
:101E700000202074204600F053F8022060742046B1
:101E800000F0EEF918B1042060740120EDE720465F
:101E900001F08DFA18B1042060740120E5E7206894
:101EA000406820F0070021684860A06828B11B48FE
:101EB000006820F00100194908601848001F0068F8
:101EC00020F46070A16808431449091F0860606825
:101ED000401C08B1656809E00120FFF725F90546B7
:101EE0001DB9042060740120BFE76D1EC5F30340D7
:101EF00021688860A8B22168C860204601F074FAA1
:101F000018B1042060740120AFE70021E1730121C2
:101F10006173A173012060740020A6E7306C00405B
:101F200038B5044613492068884222D1FFF7F6F8F5
:101F300000BF1148C06940F000600F49C861084601
:101F4000C06900F00060009000BF00BF01200B4995
:101F50000860002211460320FFF78EF80320FFF7E8
:101F60007BF8002211462920FFF786F82920FFF789
:101F700073F838BD00280040001002403C04424283
:101F80002DE9F84304460D46174600260020009030
:101F900004B115B90120BDE8F88300BF207C0128F9
:101FA00001D10220F7E70120207400BF02206074F5
:101FB000002269462046FFF7D0FE08B10120EAE77B
:101FC0009DF800004FF4616148439DF80110C1EB9A
:101FD000011100EB81009DF8021000EB01085FB9D0
:101FE00028784FF4616148436978C1EB011100EB37
:101FF0008100A978461812E0287801F065F94FF4BD
:10200000616100FB01F9687801F05EF9C0EB001036
:1020100009EB8009A87801F057F909EB000646455D
:1020200001D2184806443146204601F084FA38B1FE
:102030000420607400BF0020207400BF0120AAE7C4
:102040002068406820F0020021684860206800682D
:1020500040F00200216808600B48006840F400303E
:102060000949086008480830006840F40030064913
:10207000083108600120607400BF0020207400BF98
:1020800000BF88E780510100000401402DE9F047BE
:1020900004460D46904600260027B14604B115B906
:1020A0000120BDE8F08700BF207C012801D102207B
:1020B000F7E70120207400BF02206074B8F1000F20
:1020C00006D1E978E17369786173A978A1730BE0AF
:1020D000E87801F0F9F8E073687801F0F5F86073DA
:1020E000A87801F0F1F8A073A27B617BE07B01F09E
:1020F000E0F92073207B2870204601F0C0F90646E5
:102100004FF46160B6FBF0F9B9F1180F2FD9182020
:10211000B9FBF0F000EB4000C000C0EB4011C1EB98
:102120000020A6EB00163146204601F01BFA38B11C
:102130000420607400BF0020207400BF0120B0E7BD
:10214000204601F090F90746781C80B1B7420ED2C4
:102150000B4807443946204601F0EDF938B1042018
:10216000607400BF0020207400BF012099E70120A7
:10217000607400BF0020207400BF00BF91E7000022
:10218000805101002DE9F04704460D469046002697
:10219000002704B115B90120BDE8F08700BF207CFD
:1021A000012801D10220F7E70120207400BF02209E
:1021B0006074B8F1000F0BD128784FF46161484387
:1021C0006978C1EB011100EB8100A978461812E093
:1021D000287801F079F84FF4616100FB01F9687823
:1021E00001F072F8C0EB001009EB8009A87801F04B
:1021F0006BF809EB00063146204601F0B3F938B11F
:102200000420607400BF0020207400BF0120C3E7D9
:102210002068406820F0050021684860204601F0F1
:1022200022F90746781C80B1B7420ED20B4807440A
:102230003946204601F07FF938B10420607400BFB0
:102240000020207400BF0120A6E70120607400BFB9
:102250000020207400BF00BF9EE7000080510100F5
:1022600070B5044600250CB9012070BD2068406897
:1022700020F0080021684860FEF764FE054607E08C
:10228000FEF760FE401BB0F57A7F01D90320ECE732
:102290002068406800F008000028F1D00020E4E742
:1022A00010B504460CB9012010BD606A38B96068E9
:1022B000B0F5827F00D105E00021E16102E000215C
:1022C000216161610021A16294F8510028B90020C8
:1022D00084F85000204600F043F8022084F85100B2
:1022E0002068006820F0400021680860A08800F4A1
:1022F0008270218901F404410843A18901F400613D
:102300000843217C01F002010843217D01F0010115
:102310000843218B01F400710843217F01F038014B
:1023200008432021095D01F080010843218D01F45B
:1023300000510843216808600421A06901EA1040A7
:10234000216848602068C06920F400602168C86185
:1023500000206065012084F851000020A4E70000FF
:1023600010B586B0044600200290039004900590BA
:102370001A49206888422FD100BF1948C06940F42B
:1023800080401749C8610846C06900F48040019048
:1023900000BF00BF00BF0846806940F008008861A8
:1023A0000846806900F00800019000BF00BF4FF4AC
:1023B00020400290022003900320059002A90948C2
:1023C000FEF722FC4FF4804002900020039004901E
:1023D00002A90448FEF718FC06B010BD0038004002
:1023E00000100240000C01402DE9F84F04468846D9
:1023F00016461D464FF0000A00BF94F85000012811
:1024000002D10220BDE8F88F012084F8500000BFFF
:10241000FEF798FD0746B14694F85100012802D016
:102420004FF0020AB7E0B8F1000F00D016B94FF034
:10243000010AB0E0032084F8510000206065C4F870
:102440003080A686E686A063A087E087606420646B
:10245000A068B0F5004F0BD12068006820F0400064
:10246000216808602068006840F4804021680860A6
:102470002068006800F04000402805D0206800680F
:1024800040F0400021680860E068B0F5006F32D18C
:10249000606810B1B9F1010F09D1206B0088216883
:1024A000C860206B801C2063E08E401EE0861EE02A
:1024B0002068806800F0020002280AD1206B0088A2
:1024C0002168C860206B801C2063E08E401EE0867F
:1024D0000DE0FEF737FDC01BA84201D3681C00B910
:1024E0002DB94FF0030A012084F8510053E0E08E2B
:1024F0000028DDD131E0606810B1B9F1010F09D1D8
:10250000206B007821680873206B401C2063E08EEC
:10251000401EE0861EE02068806800F0020002286D
:102520000AD1206B007821680873206B401C20635F
:10253000E08E401EE0860DE0FEF704FDC01BA842C1
:1025400001D3681C00B92DB94FF0030A012084F8AB
:10255000510020E0E08E0028DDD13A462946204691
:1025600001F017F808B120206065A06850B900BFDD
:10257000002000902068C06800902068806800906B
:1025800000BF00BF606D10B14FF0010A02E00120F2
:1025900084F8510000BF00BF002084F8500000BF45
:1025A00050462FE770B504462546681EB0F1807F7F
:1025B00001D301200FE0681E4FF0E02148610F2198
:1025C0004FF0FF3001F0F2FB00204FF0E021886176
:1025D00007200861002070BD7047704730B5024683
:1025E0000B4600BF92F83C00012801D1022030BD0B
:1025F000012082F83C0000BF022082F83D001068F4
:1026000044681068816824F07004186804431068F6
:102610004460104D1068A8420BD01068B0F1804F94
:1026200007D00D4D1068A84203D00C4D1068A84289
:1026300005D121F0800158680143106881600120B4
:1026400082F83D0000BF002082F83C0000BF00BFC0
:10265000CDE70000002C01400004004000080040CD
:1026600010B504460CB9012010BD94F83D0028B9FE
:10267000002084F83C00204600F026F8022084F870
:102680003D00211D206801F025FA012084F8460054
:1026900000BF84F83E0001213F2001554020015534
:1026A0004120015500BF00BF012084F842004320B3
:1026B0000155442001554520015500BF012084F8F3
:1026C0003D000020D0E7000038B504462068B0F196
:1026D000804F15D100BF0B48C06940F00100094987
:1026E000C8610846C06900F00100009000BF00BF4B
:1026F000002211461C20FEF7BFFC1C20FEF7ACFC9C
:1027000038BD000000100240014691F83D0001284C
:1027100001D001207047022081F83D000868C068A0
:1027200040F001000B68D860124B086898420BD04B
:102730000868B0F1804F07D00F4B0868984203D06B
:102740000E4B086898420CD10868806800F00702B8
:10275000062A0CD00868006840F001000B68186079
:1027600005E00868006840F001000B681860002070
:10277000D0E70000002C01400004004000080040A9
:102780002DE9F04104460D46002700BF94F83C00B7
:10279000012802D10220BDE8F081012084F83C002C
:1027A00000BF022084F83D002068866826F0770686
:1027B00026F47F46206886602868502833D00CDCD9
:1027C000202850D004DC00284BD0102851D149E0FB
:1027D000302849D040284CD139E060282DD07028CD
:1027E00007D0B0F5805F03D0B0F5005F41D10DE0B8
:1027F00041E0D5E902136A68206801F0A5F9206874
:10280000866846F077062068866034E0D5E90213D2
:102810006A68206801F098F92068806840F4804078
:102820002168886027E0EA686968206801F0A0F9FB
:102830005021206801F093F91DE0EA68696820687A
:1028400001F0A9F96021206801F089F913E0EA6834
:102850006968206801F08CF94021206801F07FF957
:1028600009E000BF00BF00BF2968206801F077F9C8
:1028700001E0012700BF00BF012084F83D0000BF38
:10288000002084F83C0000BF384684E7704710B54C
:10289000044620680069C0F34000D8B12068C068D1
:1028A000C0F34000B0B16FF0020021680861012060
:1028B00020772068806900F0030018B12046FFF7F8
:1028C000E5FF05E0204600F0ADF8204600F0ABF84B
:1028D0000020207720680069C0F38000D8B120680C
:1028E000C068C0F38000B0B16FF0040021680861D7
:1028F000022020772068806900F4407018B12046DB
:10290000FFF7C4FF05E0204600F08CF8204600F0F9
:102910008AF80020207720680069C0F3C000D8B191
:102920002068C068C0F3C000B0B16FF00800216833
:102930000861042020772068C06900F0030018B106
:102940002046FFF7A3FF05E0204600F06BF8204685
:1029500000F069F80020207720680069C0F30010BB
:10296000D8B12068C068C0F30010B0B16FF010009B
:1029700021680861082020772068C06900F4407051
:1029800018B12046FFF782FF05E0204600F04AF824
:10299000204600F048F8002020772068006900F009
:1029A000010058B12068C06800F0010030B16FF03C
:1029B000010021680861204600F036F820680069AF
:1029C000C0F3C01058B12068C068C0F3C01030B167
:1029D0006FF08000216808612046FFF7FDFD206848
:1029E0000069C0F3801058B12068C068C0F380103F
:1029F00030B16FF0400021680861204600F0D6F841
:102A000020680069C0F3401058B12068C068C0F366
:102A1000401030B16FF02000216808612046FFF7B8
:102A2000DCFD10BD7047704710B504464D48844228
:102A30001BD14D48006800286BD04C480068132813
:102A40005ED24B480068632810D249480068401C99
:102A50004749086001214748FEF766FA00287FD001
:102A600045480068401C4449086079E042480168D4
:102A700042A001F06FF940480068052807D33E489E
:102A800000680E2803D800203F49086026E03A4835
:102A900000680F2807D338480068182803D8012099
:102AA000394908601AE034480068192807D33248C9
:102AB0000068222803D80220334908600EE02E481F
:102AC0000068232807D32C4800682C2803D803204B
:102AD0002D49086002E004202B4908602A4800685C
:102AE0002A49224A126841F8220020480068401C06
:102AF0001E49086000201E4908601F4908602FE039
:102B000000201A490860184908600120204908601F
:102B100026E02048006863280FD21E480068401C49
:102B20001C49086001211348FEF7FEF9C0B91A4894
:102B30000068401C1849086012E01748016817A097
:102B400001F008F914480068612804D301200649FF
:102B500008601549086000200F4908600D490860A9
:102B600010BD0000EC0E002010000020140000201A
:102B700020000020000801402400002069203D20A2
:102B800025640D0A000000002C0000202405002010
:102B900004000020180000201C00002079203D20A7
:102BA00025640D0A0000000000000020704710B5E9
:102BB00004460CB9012010BDA06900B100E000BFBF
:102BC00094F8410028B9002084F84000204600F025
:102BD00029F8242084F841002068C06820F40050BF
:102BE0002168C860204600F0EBFF2068006920F4EF
:102BF0009040216808612068406920F02A0021681F
:102C000048612068C06840F400502168C860002016
:102C10006064202084F8410084F842000020606352
:102C200000BFC8E710B586B00446002002900390AC
:102C3000049005901A49206888422ED100BF194897
:102C4000806940F48040174988610846806900F433
:102C50008040019000BF00BF00BF0846806940F07F
:102C6000040088610846806900F00400019000BFFC
:102C700000BF48150290022003900320059002A98E
:102C80000948FDF7C1FF4FF48060029000200390D7
:102C9000049002A90448FDF7B7FF06B010BD00007C
:102CA0000038014000100240000801402DE9F84FB3
:102CB00004460E46174699464FF0000A94F8410024
:102CC00020284AD106B117B90120BDE8F88F0020AD
:102CD0006064212084F84100FEF734F98246A7841D
:102CE000E784A068B0F5805F04D1206910B90025A1
:102CF000B04602E035464FF000081BE05346002284
:102D000080212046CDF8009000F0D8FF08B10320C4
:102D1000DBE745B9B8F80000C0F308002168486057
:102D200008F1020803E02878216848606D1CE08CF7
:102D3000401EE084E08C0028E0D153460022402170
:102D40002046CDF8009000F0B9FF08B10320BCE7A1
:102D5000202084F841000020B7E70220B5E70000FA
:102D600000B585B00020019002900390049000BF50
:102D70003848806940F0100036498861084680690B
:102D800000F01000009000BF00BF00BF084680693F
:102D900040F0200088610846806900F02000009023
:102DA00000BF00BF00BF0846806940F00400886192
:102DB0000846806900F00400009000BF00BF00BF1B
:102DC0000846806940F0080088610846806900F084
:102DD0000800009000BF00BF002208211E48FEF737
:102DE000ABF8002220211C48FEF7A6F80022402163
:102DF0001948FEF7A1F8002280211748FEF79CF839
:102E000000224FF4E0511548FEF796F8012001909A
:102E100000200290039001A90F48FDF7F5FEE8207D
:102E2000019001200290002003900220049001A94B
:102E30000948FDF7E9FE4FF4E050019001200290AF
:102E4000002003900220049001A90448FDF7DCFE55
:102E500005B000BD0010024000080140000C014018
:102E60001CB50020019000901A481B4908604FF0E3
:102E7000FF3048604FF4807117488160FEF7F0FF23
:102E800008B1FDF77CFC12208DF8040058208DF865
:102E9000050000208DF80600012201A90E48FFF769
:102EA00071F908B1FDF76BFC02208DF800000120DC
:102EB0008DF8010009208DF8020024208DF8030010
:102EC000012269460448FFF7E1F808B1FDF757FC15
:102ED0001CBD000000280040800E00201FB50A2005
:102EE00005214FF48062104BCDE90032CDE902108C
:102EF00000230E4A0EA1104803F0F0FB0E4803F029
:102F000057FC0A2004210A020C4BCDE90032CDE91E
:102F1000021000230A4A0BA10D4803F0DFFB0C4806
:102F200003F046FC1FBD0000800600202538000885
:102F300053686F775254430090050020800A0020A8
:102F4000150500084250435F5468726561640000D3
:102F50000806002010B50E480E4908604FF4827034
:102F6000486000210B488160C160016141614FF4FC
:102F7000007181610021C1610162416281620A21A7
:102F8000C162FFF78DF908B1FDF7F9FB10BD000034
:102F900000380040940E002000B587B00020039058
:102FA000049005900690019002904FF080401449E3
:102FB000086041F61F40486000211148816063218C
:102FC000C160002101618161FFF74AFB08B1FDF793
:102FD000D6FB4FF48050039003A90948FFF7D0FBBC
:102FE00008B1FDF7CCFB00200190029001A9044834
:102FF000FFF7F4FA08B1FDF7C2FB07B000BD00000F
:10300000EC0E002010B50B480B4908604FF4E1307E
:103010004860002108488160C16001610C21416164
:1030200000218161C161FFF7C2FD08B1FDF7A7FB77
:1030300010BD000000380140340F002000BFFEE743
:1030400000BFFEE710B5044634B1FF224FF48061A3
:103050000548FDF703F904E04FF480610248FDF7ED
:1030600004F900F003F810BD2401002070B500241D
:103070001CE004F1B001C8B2002100F0E3F8002127
:10308000084600F0DFF80021102000F0DBF80025F2
:1030900008E005EBC411074A505C012100F0D2F8AA
:1030A000681CC5B2802DF4DB601CC4B2082CE0DBC8
:1030B00070BD00002401002010B5142003F028FB8F
:1030C00000F066F80021AE2000F0BCF800210846B0
:1030D00000F0B8F80021102000F0B4F800214020E2
:1030E00000F0B0F80021B02000F0ACF80021812001
:1030F00000F0A8F80021FF2000F0A4F80021A12092
:1031000000F0A0F80021A62000F09CF80021A820E3
:1031100000F098F800213F2000F094F80021C8202A
:1031200000F090F80021D32000F08CF80021084630
:1031300000F088F80021D52000F084F800218020DC
:1031400000F080F80021D92000F07CF80021F12067
:1031500000F078F80021DA2000F074F80021122045
:1031600000F070F80021DB2000F06CF80021302026
:1031700000F068F800218D2000F064F80021142090
:1031800000F060F80021AF2000F05CF810BD0000F6
:1031900010B5012211030A48FDF7CEFE0A2003F004
:1031A000B7FA00224FF480510548FDF7C5FE0A200A
:1031B00003F0AEFA012211030148FDF7BDFE10BD78
:1031C000000C0140F0B503461446E4B1CD1701EB05
:1031D0005575ED1003EBC515194E755D0A46CE17F2
:1031E00001EB5676F610A1EBC6070126BE40F6B2FB
:1031F00035430846CE1701EB5676F61003EBC6169C
:103200000F4FBD551AE0CD1701EB5575ED1003EBCF
:10321000C5150B4E755D0A46CE1701EB5676F610B6
:10322000A1EBC6070126BE40B5430846CE1701EB09
:103230005676F61003EBC616014FBD55F0BD0000E3
:103240002401002013B50C462CB1012291020E4836
:10325000FDF772FE05E000224FF480610A48FDF799
:103260006BFE00224FF400610748FDF765FE0F2357
:10327000012269460548FFF7B7F80122D10202484A
:10328000FDF75AFE1CBD0000000C0140940E00200A
:1032900008B508490968C9084FF47A72B1FBF2F120
:1032A0004143009100BF00BF00994A1E00920029CF
:1032B000F9D108BD8000002010B50248FEF706FDD8
:1032C00010BD0000800E0020014600BF080900EB81
:1032D0008000420001F00F001044C0B27047014668
:1032E000002203E0521CA1F10A00C1B20A29F9D25E
:1032F000100741EA106070472DE9F04706468846FE
:10330000002700240025A146F77B747BB57B00BF16
:1033100040E0012C0BD0032C09D0052C07D0072C42
:1033200005D0082C03D00A2C01D00C2C0CD11F2D59
:1033300001D26D1C2CE00C2C02D0641C012527E06E
:10334000012401257F1C23E0042C05D0062C03D08A
:10335000092C01D00B2C06D11E2D01D26D1C17E0BB
:10336000641C012514E0022C12D11C2D01D26D1C0D
:103370000EE01C2D08D1B8B200F05CF808B16D1C4D
:1033800006E0641C012503E01D2D01D1641C01250C
:1033900009F10109C145BCD3F7737473B573EAB27F
:1033A000E1B2384600F085F83073BDE8F08770B5BB
:1033B00004460025FDF7C6FD054607E0FDF7C2FD02
:1033C000401BB0F57A7F01D9032070BD20684068AA
:1033D00000F020000028F1D02068406840F0100084
:1033E000216848600020F0E770B504460025206899
:1033F000406820F0100021684860FDF7A3FD0546F5
:1034000007E0FDF79FFD401BB0F57A7F01D903204F
:1034100070BD2068406800F020000028F1D0002036
:10342000F6E7000010B50248FEF70EFB10BD0000E5
:10343000800E0020014601F0030008B10020704713
:103440006420B1FBF0F200FB121008B10120F6E796
:103450004FF4C870B1FBF0F200FB121008B9012064
:10346000EDE70020EBE70146002200230868006A30
:1034700082B20868406A83B243EA0240704730B5BE
:10348000014600220023002400200D68AD69AAB285
:103490000D68ED69ACB20D68AD69ABB29A4205D06A
:1034A0000D68ED6963F31F45284601E044EA0240D8
:1034B00030BDF0B504460B460021002504F5FA6145
:1034C000032B1BD2C3EBC30000EB03100926B0FB98
:1034D000F6F01044001D4618481E06EB90066427BF
:1034E000B0FBF7F0361A481EBF00B0FBF7F03044CF
:1034F0000726B0FBF6F706FB17051AE0C3EBC3007F
:1035000000EB03100926B0FBF6F01044001D084440
:1035100000EB91006426B1FBF6F6801B4FF4C876F1
:10352000B1FBF6F63044801E0726B0FBF6F706FB2B
:103530001705E8B2F0BD70B504460D4600262046DA
:10354000FFF735FF08B101260AE0280C2168086260
:10355000A8B2216848622046FFF746FF00B1012665
:10356000304670BD70B504460D4600262046FFF774
:103570001EFF08B101260AE0280C21688861A8B264
:103580002168C8612046FFF72FFF00B101263046B1
:1035900070BDF8B504460D4616462B460022802124
:1035A0002046009600F00AF828B1606D40F0200037
:1035B00060650320F8BD0020FCE700002DE9F84F0E
:1035C00004460D4690461E46DDF82890FDF7BAFCED
:1035D000A0EB0900371AFDF7B5FC82462C480068BD
:1035E000C0F3CB307843009045E0701C002842D0F7
:1035F000FDF7A8FCA0EB0A00B84200D2A7BB2068E8
:10360000406820F0E000216848606068B0F5827F83
:103610000DD1A068B0F5004F03D0A068B0F5806F61
:1036200005D12068006820F0400021680860A06A89
:10363000B0F5005F0DD100BF2068006820F4005095
:10364000216808602068006840F400502168086024
:1036500000BF012084F8510000BF002084F8500012
:1036600000BF0320BDE8F88FFFE7009800B90027EE
:103670000098401E0090206880682840A84201D130
:10368000012000E000204045AFD10020EAE7000023
:103690008000002030B503460C461546002207E0A6
:1036A000184600F008F824F812009B1C501C82B247
:1036B000AA42F5DB30BD0146088870472DE9F05F6E
:1036C00080468A461746B8F1006F02D33A488045D3
:1036D00001D3BDE8F09FFDF77FFAA8F1006B4FEA38
:1036E0009B25CBF34809C9F50074A74200DC3C4692
:1036F0005CE04FF0006101EB85208A142F49FFF751
:10370000C9FF00260BE009EB06002C4931F8100038
:103710004FF6FF71884200D003E0701C86B2A642CB
:10372000F1DB00BFA64225DA4FF0006101EB8520F6
:10373000FDF7B2F84CF25030FDF776F820480069FA
:1037400020F002001E490861002608E03AF8160041
:1037500006EB0901194A22F81100701C86B2A64234
:10376000F4DB4FF0006101EB85208A14134900F06F
:1037700029F808E04CF25030FDF756F82246514641
:10378000404600F01FF8A74200D110E06D1C4FF03A
:1037900000090AEB440A08EB4408381B87B2B7F566
:1037A000007F02DD4FF4007400E03C46A1E700BF5B
:1037B000FDF7B0F900BF8CE700000108E80F00201A
:1037C000002002402DE9F04104460E461746002530
:1037D0000AE036F815C06246002321460120FDF7B5
:1037E000A3F9A41C681C85B2BD42F2DBBDE8F081E0
:1037F00010B506A000F0AEFA0D2208490848FFF700
:103800005DFF02A000F0A6FA10BD0000D0B4C8EB26
:10381000CAFDBEDDB3C9B9A6000000009278000859
:1038200000F8000808B582E04148C07800F5FA6267
:1038300040A1424800F09EFA012010233F4A052192
:1038400000900020FDF72EF901203DA31022052154
:1038500000902120FDF734F83548427835A13948E9
:1038600000F088FA01201023364A0521009030200C
:10387000FDF718F9012034A31022052100903F2004
:10388000FDF71EF82A4882782AA1304800F072FA23
:10389000012010232D4A052100904E20FDF702F94A
:1038A00001202BA31022052100905D20FDF708F8D0
:1038B0001F48027827A1284800F05CFA0120102355
:1038C000254A2E2100901E20FDF7ECF823480278AF
:1038D00023A1254800F04EFA01201023224A172187
:1038E00000901E20FDF7DEF81C4842781CA11F48FE
:1038F00000F040FA012010231C4A172100903720C5
:10390000FDF7D0F8154882780AA1194800F032FA7C
:1039100001201023164A172100905020FDF7C2F80D
:103920004FF4FA7002F055FE0020FFF78BFB7BE7A7
:1039300033000020253032640000000037000020F2
:10394000C4EA00003C000020D4C200003F00002078
:10395000C8D50000256400004B0000203000002086
:10396000253032643A00000042000020450000206B
:103970004800002010B502F051F902F0B5FF02F046
:103980005DF910BD00B593B0282109A8FCF76DFCC6
:10399000142104A8FCF769FC00200090019002901B
:1039A0000390052009904FF480300A9000200B907E
:1039B00001200C900D9002201090C10311914FF442
:1039C000E011129109A8FDF70BFE08B1FCF7D7FE34
:1039D0000F20049002200590002006904FF4806094
:1039E000079000200890022104A8FDF7B3FC08B15D
:1039F000FCF7C5FE01200090000201906846FDF72B
:103A000011FC08B1FCF7BBFE13B000BD10B50021DE
:103A100000200022214B5B6803F00C0121B1042936
:103A200006D0082928D107E01D4B1E4C236027E053
:103A30001B4B1C4C236023E0184B5B6803F4701095
:103A4000164B5B6803F48032022303EB904022B9EB
:103A5000154B4343134C23600DE0104B5B6803F49C
:103A6000003323B1104B43430E4C236003E00C4B57
:103A700043430C4C236003E0094B0A4C236000BF16
:103A800000BF064B5B68C3F30313084CE15C054BB6
:103A90001B68CB40034C236010BD000000100240A7
:103AA00000127A008000002000093D00C378000861
:103AB0007047000010B50248FEF7E9FE10BD000097
:103AC0007C0F002010B50248FEF7E1FE10BD00009B
:103AD000EC0E002010B50268184B984208D0B0F1E7
:103AE000804F05D0164B984202D0164B984203D116
:103AF00022F070024B681A43104B984208D0B0F184
:103B0000804F05D00E4B984202D00E4B984203D105
:103B100022F44072CB681A4322F080034C6943EAD6
:103B2000040202608B68C3620B688362034B984295
:103B300001D10B6903630123436110BD002C0140D7
:103B4000000400400008004030B50C46816821F4B4
:103B50007F4142EA032525432943816030BD0A465F
:103B6000816821F0700142F00703194381607047BA
:103B700030B50B461446026A056A25F00105056258
:103B8000816921F0F00141EA041122F00A021A438E
:103B90008161026230BD30B50B461446026A056A87
:103BA00025F010050562816921F4704141EA043174
:103BB00022F0A00242EA03128161026230BD0000DD
:103BC00070B504462168096921F44051E268114347
:103BD000226811612269A1681143626941EA020504
:103BE0002168C96841F20C62914329432268D1607F
:103BF0002168496921F44071A26911432268516129
:103C00002D4A2168914202D1FDF7A2FC01E0FDF7A7
:103C10008FFC00EBC00101EB001162689200B1FB68
:103C2000F2F100EBC00202EB001263689B00B2FBF2
:103C3000F3F26423B2FBF3F202EBC20303EB0212D2
:103C4000A1EB8201322202EB01116422B1FBF2F1FD
:103C500001F0F00100EBC00202EB001263689B0070
:103C6000B2FBF3F26423B2FBF3F201EB021200EBBE
:103C7000C00101EB001163689B00B1FBF3F100EBA5
:103C8000C00303EB00136668B600B3FBF6F36426CB
:103C9000B3FBF6F303EBC30606EB0313A1EB8301BF
:103CA000322303EB01116423B1FBF3F101F00F01A7
:103CB00011442268916070BD003801402DE9F04147
:103CC00004460D4617469846069E34E0701C88B39D
:103CD0002EB1FDF737F9A0EB0800B0422BD900BF99
:103CE00000BF21680C3151E8001F21F4D070216819
:103CF0000C3141E80002002AF3D100BF00BF00BF31
:103D00002168143151E8001F21F0010021681431AD
:103D100041E80002002AF3D100BF202084F84100CE
:103D200084F8420000BF002084F8400000BF032058
:103D3000BDE8F081FFE7206800682840A84201D173
:103D4000012000E00020B842C0D00020F0E700BF12
:103D5000FEE700000FB4054B10B503A9044A029812
:103D600000F0A2F810BC5DF814FB00001D4900082B
:103D7000200100200FB4084B10B504A902AA039833
:103D800000F092F8044602A9002000F0A0FA2046B4
:103D900010BC5DF814FB0000CF4200080248006828
:103DA000C0F30220704700000CED00E010B50028C1
:103DB00004DB0A07130E054A135406E00A07140E23
:103DC000034A00F00F031B1FD45410BD00E400E0B1
:103DD00018ED00E0014609B900207047C8B220B1D3
:103DE000C8B20E4A105C401CF7E701F47F4028B1CE
:103DF0000A48C1F30722805C0930EEE701F47F0036
:103E000028B10648C1F30742805C1130E5E703485A
:103E100000EB116000781930DFE70000DB78000864
:103E200002E008C8121F08C1002AFAD17047704783
:103E3000002001E001C1121F002AFBD170472DE9CB
:103E4000F04389B0064688469146002400E0641C91
:103E5000305D202804D0305D092801D04445F6D3D8
:103E600024B94FF0FF3009B0BDE8F0832146304659
:103E700001F062FA054615B94FF0FF30F3E7202153
:103E800001A8FCF7F2F901AA4146304601F0C4FA54
:103E9000074617B94FF0FF30E5E701A93846A847B4
:103EA000C9F800000020DEE72DE9FF4F8BB08846FF
:103EB0000546002606E025280BD0DDE90D129047C7
:103EC0006D1C761C28780028F5D10FB03046BDE86F
:103ED000F08F0024A146A2460122AE4900E004432F
:103EE00015F8013F203B02FA03F00842F7D1287889
:103EF0002A2810D06FF02F022878A0F1300109296C
:103F000015D809EB890102EB410144F0020400EBF2
:103F100001096D1CF0E758F8041B5FEA010903D59D
:103F200044F40054C9F1000944F002046D1C2878DF
:103F30002E2817D115F8010F44F004042A280ED0BA
:103F40006FF02F022878A0F1300109290AD80AEB76
:103F50008A0102EB410100EB010A6D1CF2E758F8FF
:103F600004AB6D1C28786C280FD006DC4C2817D0C9
:103F700068280DD06A2814D104E0742810D07A285B
:103F80000FD10DE044F400140AE044F4801401E081
:103F900044F440146978814202D104F580146D1C08
:103FA0006D1C2878692865D006DC00288DD0632830
:103FB00027D0642806D15DE06E2808D073282AD067
:103FC000752877D0DDE90D129047761CE0E0C4F348
:103FD0000250022809D003280DD0D8F80010042878
:103FE0000DD00E6008F10408D2E0D8F80010F217E6
:103FF000C1E90062F6E7D8F800100E80F2E70E7013
:10400000F0E718F8041B8DF8001000208DF801006F
:10401000EB46012003E058F804BB4FF0FF30610786
:104020004FF0000701D40AE07F1C57450DDA8742A4
:10403000FADB1BF807100029F6D106E07F1C874247
:10404000FCDB1BF807100029F8D1DDE90D23A9EBF3
:1040500007008146214600F0B1F83044C61904E05B
:10406000DDE90D121BF8010B90477F1EF8D22146A7
:10407000484688E058F8040BC4F302514FF00A0B8D
:10408000032900D100B2042900D140B2002802DA8D
:1040900040422D2102E0210505D52B218DF8241069
:1040A000012104E006E0E10710D02021F6E708AF87
:1040B000089113E058F8040BC4F302514FF00A0BB7
:1040C000032900D180B2042900D1C0B20021EEE75B
:1040D0005946FCF70CF9303107F8011D0028F7D1DB
:1040E000ADEB070000F1200B600702D524F480340B
:1040F00001E04FF0010ADA4502DDAAEB0B0000E017
:104100000020824600EB0B0108980144A9EB010056
:104110000A90E00306D4DDE90D2321460A9800F059
:104120004DF806444FF0000908E009A911F809000C
:10413000DDE90D12904709F10109761C08998945BE
:10414000F3DBE0030CD5DDE90D2321460A9800F0EE
:1041500035F8064404E0DDE90D1230209047761C66
:10416000BAF10001AAF1010AF5DC05E0DDE90D1262
:1041700017F8010B9047761CBBF10001ABF1010B66
:10418000F4DC0A982146DDE90D2300F005F8064429
:104190006D1C97E6092801002DE9F0410446002531
:1041A0001E461746880404D405E039462020B0474F
:1041B0006D1C641EF9D52846BDE8F0812DE9F0415B
:1041C000044600251E469046C80301D5302700E06E
:1041D0002027880404D505E041463846B0476D1CC9
:1041E000641EF9D52846BDE8F08100002DE9FC5F8A
:1041F00004468B4615461E46DDE90C9ADDE90E782D
:1042000004F114004060006000BF1C346560A660CB
:10421000C4F80C90C4F810A02321D4E9030201F0E3
:10422000A4FED4E9033C63441A1F0F4BD4E90101F7
:1042300001F0CEFC2060A77667760020E061C4F82C
:104240002080C4F82480606120766065A0651C3CF5
:1042500000902346054A2146019004F1440002F0F3
:10426000F2FB0020BDE8FC9FE16500082168000822
:104270002DE9F04704460E4617469846DDF8209093
:1042800084F80990607A20F001006072E66127628C
:104290000020A062C4F82480002506E004F1140187
:1042A00001EBC50001F035FD6D1C012DF6DBBDE80D
:1042B000F08770B50546002406E005F1140101EB16
:1042C000C40001F071FD641C012CF6DB70BD0A68AE
:1042D000531C0B601070704770B50446FBF722FF4B
:1042E0000546206F10B12046216F88472846FBF70E
:1042F0001DFF70BD10B520A001F0F0FC2148017831
:1043000021A001F0EBFC1F48007800F0010010B183
:1043100023A001F0E3FC1B48007800F0020010B17C
:1043200022A001F0DBFC1748007800F0040010B177
:1043300021A001F0D3FC1348007800F0080010B170
:1043400021A001F0CBFC0F48007800F0100010B164
:1043500020A001F0C3FC0B48007800F0800030B1D1
:1043600008480F3001681DA001F0B8FC02E01FA052
:1043700001F0B4FC10BD0000627573206661756CBD
:10438000743A0A0029ED00E05343425F434653521A
:104390005F424653523A30782530325820000000B0
:1043A00049425553455252200000000050524543A7
:1043B0004953455252200000494D505245434953FC
:1043C0004552522000000000554E53544B45525266
:1043D0002000000053544B45525220005343422DBD
:1043E0003E424641523A253038580A000A00000041
:1043F00070B504460D4600F07DFB002070BD70B521
:1044000004460D4600F052FC002070BD10B5144863
:10441000006890F82100C0F3400020B90020114945
:104420000870084610BD1048006838B180220E4858
:1044300001680C48FBF730FF0A48F3E700F0EAFF99
:1044400020B10AA10748FBF73AFF03E009A105489C
:10445000FBF735FF09A10348FBF712FF0148E1E72D
:1044600018010020685300201C0100206D73682093
:104470000000000066696E73682000003E000000C6
:1044800010B501F063FA10BD0549096891F82110D3
:1044900060F34101024A126882F82110704700005F
:1044A00018010020024A1060024A116070470000A3
:1044B000080100200C0100207CB500251749184890
:1044C000FFF7F0FF7821012001F04CF91549086051
:1044D0000846006820B914A001F000FC681E7CBDED
:1044E0000A2015214FF480630022CDE90010144901
:1044F00014A002F046F8044600231A4613A1094806
:10450000006801F07DFE0120FFF7BEFF1CB115B968
:10451000204602F04DF90020E1E70000F87C000899
:10452000507C0008180100206E6F206D656D6F7261
:104530007920666F72207368656C6C0A0000000059
:1045400055450008747368656C6C00007368727878
:1045500000000000E948006890F8210020F0010008
:10456000401CE649096881F82100FFF74FFF054626
:1045700001F0B4FBC1E1FFF783FF0446002C00DA31
:10458000BBE11B2C05D10120DC49096881F8200022
:10459000B3E1DA48006890F8200001280DD15B2CC7
:1045A00005D10220D549096881F82000A5E1002045
:1045B000D249096881F8200045E0D048006890F8A9
:1045C000200002283FD10020CC49096881F8200052
:1045D000412C00D191E1422C00D18EE1442C11D12B
:1045E000C6480068B0F8740058B1C5A001F076FB69
:1045F000C2480068B0F87400401EC0490968A1F8BC
:1046000074007AE1432C1ED1BC480068B0F87400F5
:10461000BA490968B1F87210884213DAB7480068DD
:10462000B0F87420B54800682230815CB5A001F074
:1046300055FBB2480068B0F87400401CAF490968E7
:10464000A1F8740059E10CB1FF2C00D155E1092CFF
:104650001FD1002503E0AAA001F040FB6D1CA74874
:104660000068B0F87400A842F5DCA4480068223065
:1046700002F04CFCA14800682230FBF719FE80B222
:104680009E490968A1F872009C490968A1F8740064
:1046900033E17F2C01D0082C6ED198480068B0F827
:1046A000740000B929E195480068B0F87200401E16
:1046B00092490968A1F8720090480068B0F8740047
:1046C000401E8E490968A1F874008C480068B0F853
:1046D00072008A490968B1F8741088423FDD874B3F
:1046E0001B68B3F87230854E3668B6F874609A1B52
:1046F000824B1B68B3F874305B1C804E36682236E0
:1047000099197E4B1B68B3F874607C4B1B6822338D
:10471000F01801F009FC002278480068B0F8721027
:10472000764800682230425474480068B0F874201B
:10473000724800682230111873A001F0CFFA6F4858
:104740000068B0F8745003E06DA001F0C7FA6D1C6A
:104750006A480068B0F87200A842F5DA0BE06CA075
:1047600001F0BCFA002165480068B0F87220634887
:10477000006822308154C0E00D2C01D00A2C2BD1CE
:1047800000F048FE012812D15C48006890F8210032
:1047900000F0010010B15FA001F0A0FA57480068D6
:1047A000B0F8721055480068223000F08FFDFFF716
:1047B0002DFE054601F092FA502150480068223043
:1047C000FBF753FD00204D490968A1F872004B49E1
:1047D0000968A1F8740090E048480068B0F87200D9
:1047E000502804DB002045490968A1F872004348BD
:1047F0000068B0F8740041490968B1F87210884245
:1048000045DA3E4B1B68B3F872303C4E3668B6F85A
:1048100074609A1B394B1B68B3F87460374B1B6884
:104820002233F118354B1B68B3F874305B1C334EE0
:1048300036682236981901F077FB30480068B0F8E6
:1048400074202E480068223084542C48006890F868
:10485000210000F0010050B128480068B0F8742031
:1048600026480068223011182BA001F037FA23489F
:104870000068B0F8745003E021A001F02FFA6D1C1D
:104880001E480068B0F87200A842F5DC12E01B4830
:104890000068B0F872201948006822308454174824
:1048A000006890F8210000F0010018B1214615A021
:1048B00001F014FA002411480068B0F87200401C9E
:1048C0000E490968A1F872000C480068B0F874003D
:1048D000401C0A490968A1F8740008480068B0F84B
:1048E0007200502808DB002004490968A1F8720012
:1048F00002490968A1F8740000BF3CE618010020D5
:10490000080000002563000008257320200800002F
:10491000082008000A0000002573000013B50C46AB
:104920004FF0FF33012269460248FEF7BFF90098B5
:104930001CBD0000340F002010B51448006800F0C2
:10494000020010B112A001F0C9F91048006800F08F
:10495000804088B10D48C01E007808B1FFF7CAFC3E
:104960000A48001F007808B100F0ECFB0748801EE1
:10497000008808B102F050FB0448006800F00040D5
:1049800010B109A001F0AAF910BD00002CED00E063
:104990006661696C656420766563746F7220666514
:1049A0007463680A000000006465627567206576BC
:1049B000656E740A0000000010B502A001F08EF9C7
:1049C000002010BD48656C6C6F2052542D546872E5
:1049D000656164210A00000010B50DA001F07EF9A8
:1049E000104804680DE002220FA12068FBF770FC5C
:1049F00000B905E00DA0D4E9001201F06FF900BF85
:104A00000C340E4800688442EDD3002010BD000035
:104A10002D2D46756E6374696F6E204C6973743A00
:104A20000A000000080100205F5F0000252D3136DC
:104A300073202D2D2025730A000000000C0100209A
:104A40002DE9F04704460D4616461F46284601F05C
:104A5000FBFA814609F10408C4F8008025726660FB
:104A6000E76000202061BDE8F0872DE9F84F074698
:104A70000C464FF0000A00202061E06808B1207A5F
:104A800010B90020BDE8F88FD4F800801FB9454662
:104A90004FF0010A00E03D46FBF744FB0090BAF1FD
:104AA000000F0ED1A5F10C0B9BF8080020F0800040
:104AB000217A884204D00098FBF738FB0020E1E718
:104AC00000BF0026D4F804900BE02D68454501D1C5
:104AD000002507E0761C49F8045BE068B04200D18D
:104AE00000E0F2E700BF0098FBF720FB26612846B4
:104AF000C8E7000010B50848016808A001F0EEF80A
:104B00000B4801680BA001F0E9F80F4801680FA0FD
:104B100001F0E4F810BD000098000020746F74618B
:104B20006C206D656D6F72793A2025640A00000073
:104B30009C00002075736564206D656D6F7279202F
:104B40003A2025640A000000A00000206D61786909
:104B50006D756D20616C6C6F6361746564206D654B
:104B60006D6F72793A2025640A0000002DE9F04F3C
:104B70008FB000270FF2D409082302AA02210AA845
:104B8000FFF75EFF4FF008084A46414632A001F0A9
:104B9000A5F8404600F0B8FC36A001F09FF800BF31
:104BA0000AA93846FFF761FF0746002545E002A83D
:104BB00050F82500A0F10C06FBF7B4FA8246307AD3
:104BC00020F080009DF83010884203D05046FBF75B
:104BD000ADFA31E05046FBF7A9FA344604F114006F
:104BE0000168814201D1012100E00021A9B904F14D
:104BF000140001F0BDF88346A08B234608224146ED
:104C0000CDE9000B21A001F069F804F1140002F0D5
:104C100099F917A001F062F80DE004F1140001F019
:104C2000A7F88346A08B234608224146CDE9000B16
:104C30001AA001F053F800BF6D1C0E98A842B6DC14
:104C4000002FADD100200FB0BDE8F08F73656D610E
:104C500070686F7265000000252D2A2E7320762063
:104C6000202073757370656E64207468726561646A
:104C70000A000000202D2D2D202D2D2D2D2D2D2D28
:104C80002D2D2D2D2D2D2D0A00000000252D2A2E35
:104C90002A7320253033642025643A00252D2A2EDE
:104CA0002A7320253033642025640A002DE9F04F53
:104CB000AFB04FF000090FF21C1B082321AA0121FD
:104CC00029A8FFF7BDFE4FF0080A5A46514643484F
:104CD00001F004F8504600F017FC41A000F0FEFF80
:104CE00000BF29A94846FFF7C0FE81464FF00008E3
:104CF00065E021A850F82800A0F10C05FBF712FA96
:104D00002E90287A20F080009DF8AC10884203D0C5
:104D10002E98FBF70BFA50E07822294603A8FBF700
:104D20008BFA2E98FBF702FA2C4694F835002346AE
:104D30000822514600903AA000F0D0FF94F83400C9
:104D400000F00F06012E03D138A000F0C7FF15E0D8
:104D5000022E03D138A000F0C1FF0FE01EB939A028
:104D600000F0BCFF0AE0042E03D139A000F0B6FF2A
:104D700004E0032E02D139A000F0B0FFA76A00E0E2
:104D80007F1C38782328FBD0D4E90A10791A401AFE
:104D900064214843E16AB0FBF1F00290216B206C82
:104DA000CDE90001E369A06AC01AE36AC1181A4696
:104DB0002DA0029B00F092FF00BF08F101082D9882
:104DC000404596DCB9F1000F8BD100202FB0BDE833
:104DD000F08F00007468726561640000007A00085A
:104DE000202D2D2D20202D2D2D2D2D2D2D202D2D27
:104DF0002D2D2D2D2D2D2D2D202D2D2D2D2D2D2DF0
:104E00002D2D2D20202D2D2D2D2D2D20202D2D2D06
:104E10002D2D2D2D2D2D2D202D2D2D0A00000000A6
:104E2000252D2A2E2A7320253364200020726561E7
:104E300064792020000000002073757370656E6433
:104E40000000000020696E6974202020000000002E
:104E500020636C6F73652020000000002072756E67
:104E60006E696E67000000002030782530387820A9
:104E700030782530387820202020253032642525D0
:104E800020202030782530387820253033640A00FF
:104E90002DE9F04790B000270FF2B409082303AAC8
:104EA0000A210BA8FFF7CCFD4FF008084A464146FF
:104EB00029A000F013FF404600F026FB30A000F0D0
:104EC0000DFF00BF0BA93846FFF7CFFD07460026B0
:104ED0002DE003A850F82600A0F10C04FBF722F9FE
:104EE0008246207A20F080009DF83410884203D05A
:104EF0005046FBF71BF919E05046FBF717F925461A
:104F0000D5E909012B460822CDE90001414625A03B
:104F100000F0E4FE687A00F0010018B127A000F06C
:104F2000DDFE02E028A000F0D9FE00BF761C0F983D
:104F3000B042CEDC002FC5D101F0D0FC04462146A2
:104F400025A000F0CBFE002010B0BDE8F0870000E7
:104F500074696D6572000000252D2A2E7320207063
:104F60006572696F64696320202074696D656F756F
:104F70007420202020202020666C61670A00000039
:104F8000202D2D2D2D2D2D2D2D2D2D202D2D2D2D6B
:104F90002D2D2D2D2D2D202D2D2D2D2D2D2D2D2D4E
:104FA0002D2D0A00252D2A2E2A7320307825303801
:104FB00078203078253038782000000061637469EB
:104FC00076617465640A0000646561637469766182
:104FD0007465640A0000000063757272656E742067
:104FE0007469636B3A3078253038780A0000000025
:104FF00092B0FBF7ADFFFEF7C5FCFDF7B1FEFDF784
:105000002FFFFDF7C9FFFDF7A5FFFDF7FBFF00220E
:1050100011462920FCF730F82920FCF71DF84FF441
:10502000FA6001F075FBFEF7E3FBFEF745F80020A0
:10503000FEF708F83548FDF767FB0022344935488C
:10504000FCF78BFE002234493248FCF75DFE002459
:105050000D220EA93148FEF71DFB00BF06E00EA889
:10506000005D303801A941F82400641C0D2CF6D3F2
:10507000DDE9011001EB810100EB410028490870D6
:10508000DDE9031001EB810100EB41002449487088
:10509000DDE9051001EB810100EB4100204988703A
:1050A00020480A8802808978817000201D49486064
:1050B00000221848FCF764FFDDE9071001EB8101CD
:1050C00000EB410018490860DDE9091001EB81019E
:1050D00000EB410015490860DDE90B1001EB81018F
:1050E00000EB410012490860FDF7F8FE0DE00022D8
:1050F00007490848FCF731FE002207490548FCF73C
:1051000003FE4FF47A7001F003FBF0E7EC0E002091
:1051100030000020800E00203300002000F800083E
:105120004E0000205C000020680000206C00002081
:105130007000002010B5044600F034FBFFF758FF64
:1051400010BD000010B51CA000F0C8FD1F4801787C
:105150001FA000F0C3FD1D48007800F0010010B151
:1051600021A000F0BBFD1948007800F0020010B14A
:1051700020A000F0B3FD1548007800F0080010B141
:105180001FA000F0ABFD1148007800F0100010B136
:105190001EA000F0A3FD0D48007800F0800030B1A3
:1051A0000A480C3001681CA000F098FD02E01EA027
:1051B00000F094FD10BD00006D656D206D616E61A5
:1051C0006765206661756C743A0A000028ED00E09E
:1051D0005343425F434653525F4D4653523A3078F1
:1051E00025303258200000004941434356494F4C76
:1051F000200000004441434356494F4C200000002A
:105200004D554E53544B4552522000004D53544B74
:1052100045525220000000005343422D3E4D4D4167
:10522000523A253038580A000A0000002DE9F047AC
:1052300081460026002799F8000028B90021084679
:1052400000F0A8F8BDE8F0871B48046827E00622B4
:105250001AA12068FBF73CF800B11FE0206800F1BC
:1052600006084846FBF724F882465246414648461F
:10527000FBF72EF888B926B947463846FBF718F8E9
:1052800006464146384601F088FE0546B54200DA3A
:105290002E4641460BA000F021FD00BF0C340A4809
:1052A00000688442D3D327B132463946484601F0DC
:1052B00084F800BFC6E70000080100205F5F636D4F
:1052C000645F000025730A000C01002038B5044615
:1052D0000D4601E0641C6D1E2DB120782028F9D008
:1052E00020780928F6D00DB9002038BD6A46294635
:1052F0002046FEF7A4FD08B90098F6E7204600E036
:10530000401C0178202902D001780029F8D1002121
:105310000170214602A000F0E1FC4FF0FF30E4E70D
:1053200025733A20636F6D6D616E64206E6F74201B
:10533000666F756E642E0A002DE9F04106460D4633
:1053400000271048046815E006220FA12068FAF72C
:10535000BFFF00B10DE02168881D2A463146FAF7EB
:10536000B7FF28B9A81D2168085C08B9A76805E03F
:1053700000BF0C34064800688442E5D300BF3846BD
:10538000BDE8F081080100205F5F636D645F00008D
:105390000C01002070B505460E460FA000F09EFCE3
:1053A000144804680EE0062213A12068FAF790FF63
:1053B00000B106E0D4E90002811D11A000F08EFCCE
:1053C00000BF0C34114800688442ECD310A000F0F8
:1053D00085FC002070BD000052542D546872656138
:1053E00064207368656C6C20636F6D6D616E6473AF
:1053F0003A0A0000080100205F5F636D645F0000EF
:10540000252D313673202D2025730A000C01002034
:105410000A000000012070472DE9F04782460E4641
:10542000904654460025002755E003E000202070F8
:10543000641C6D1C2078202802D02078092801D116
:10544000B542F3D3082F12D326A000F047FC4FF04B
:10545000000906E058F829102AA000F03FFC09F1E5
:105460000109B945F6D326A000F038FC35E0B54275
:1054700000D332E0207822281CD1641C6D1C48F82F
:1054800027407F1C09E020785C2804D1607822281E
:1054900001D1641C6D1C641C6D1C2078222801D075
:1054A000B542F0D3B54200D317E000202070641C51
:1054B0006D1C10E048F827407F1C01E0641C6D1C47
:1054C0002078202804D02078092801D0B542F5D3CF
:1054D000B54200D301E0B542A7D300BF3846BDE8CE
:1054E000F0870000546F6F206D616E7920617267E4
:1054F000732021205765206F6E6C79205573653AB3
:105500000A0000002573200010B5044602E004A044
:1055100000F0E4FB201EA4F10104F8D110BD00004E
:105520002D00000030B51A4C4368246819198842D0
:1055300015D04B889BB9174B1B6899420FD0164B5F
:105540001B688B4201D1144B18604B684360104BB1
:105550001B68C31A0E4D4C682D682C44A3600C4C7C
:10556000836824681A19824211D053887BB90A4B88
:105570001B68834201D1084B1A6043685360044B97
:105580001B68D31A024D44682D682C44A36030BDBB
:105590008C00002090000020940000202DE9F04FA6
:1055A00086B00D469C46DDE9106401960F9B04F021
:1055B0004008B8F1000F02D0DFF8708101E0DFF899
:1055C0007081CDF8008004F01008B8F1000F01D010
:1055D00024F0010404F00108B8F1000F02D04FF0EC
:1055E000300801E04FF02008C246002704F002080E
:1055F000B8F1000F11D0002A02DA2D2752420CE038
:1056000004F00408B8F1000F01D02B2705E004F0E6
:105610000808B8F1000F00D02027002142B94FF050
:10562000300B8846491C0DF1080909F808B01DE047
:105630001AE0E146B9F10A0F08D14FF00A0BB2FBAC
:10564000FBFE0BFB1E28B2FBFBF202E002F00F0890
:10565000120900BFDDF8009019F808B08846491C0F
:105660000DF1080909F808B0002AE2D1B14200DDC5
:105670000E469B1B04F01108B8F1000F10D117B1B2
:10568000002B00DD5B1E06E0A84203D24FF020088D
:1056900080F80080401CB3F10008A3F10103F3DCA3
:1056A00027B1A84200D207705B1E401C04F010080E
:1056B000B8F1000F0AD104E0A84201D280F800A09E
:1056C000401CB3F10008A3F10103F5DC06E0A84299
:1056D00003D24FF0300880F80080401CB046761EA0
:1056E0008845F4DC08E0A84205D20DF1080818F856
:1056F000018080F80080401CB1F10008A1F1010197
:1057000004DDDDF80480B8F1000FECD106E0A8421A
:1057100003D24FF0200880F80080401CB3F100084D
:10572000A3F10103F3DC06B0BDE8F08FEC790008CB
:10573000DB7900081CB514200A214FF48063002295
:10574000CDE90010044905A000F01BFF04462046E7
:1057500001F02EF81CBD0000355100086D61696E26
:105760000000000070B504460D4604FB05F000F093
:1057700025FB06462EB104FB05F20021304600F061
:10578000F4FB304670BD000010B5044C02E0206808
:105790008047241D02488442F9D310BD3C7C000898
:1057A000447C000810B5044C02E020688047241DAA
:1057B00002488442F9D310BD447C00084C7C0008A8
:1057C00010B5FAF7AFFC044604480088401C00B24C
:1057D000024908802046FAF7A9FC10BDD800002035
:1057E00010B5FAF79FFC04460C480088401E00B232
:1057F0000A4908800846B0F9000000280ADC0020A9
:1058000008802046FAF792FC0548006828B100F0AD
:1058100063FC02E02046FAF789FC10BDD8000020A6
:10582000DC00002070B5054605B970BD1D48006854
:10583000854203D31C480068854200D3F5E7A5F1F3
:105840000C044FF0FF31194800F01CFD608818B1BE
:105850002088B0F5F55F08D015A000F03FFA238846
:105860006288214619A000F039FA002060804FF4C8
:10587000F550208021480068844201D21F4804600E
:10588000084960680968611A401A1D490968081AC0
:105890001B4908602046FFF745FE044800F0C3FCA2
:1058A00000BFC2E78C0000209000002000160020FE
:1058B000746F206672656520612062616420646196
:1058C000746120626C6F636B3A0A00006D656D3A1B
:1058D000203078253038782C207573656420666C0C
:1058E00061673A2025642C206D6167696320636FCE
:1058F00064653A203078253034780A00940000201E
:105900009C00002000487047201700200048704786
:105910002053002070B5FBF71BFBFEF733F8FEF7B2
:1059200075F8FBF7FFFD4FF47A71B0FBF1F42046F8
:10593000FCF738FEFFF728FFFFF7E8FF0446FFF704
:10594000E1FF0546214600F053FD70BD10B54FF054
:10595000FF34084800680068C0F3401020B10548D3
:1059600000684068C4B202E00A2000F0D1FEE0B254
:1059700010BD000020530020F8B505460024002685
:105980000D20009000BF00200E4981F8400000BFAC
:10599000284600F009FD064600BF0FE0285D0A28F2
:1059A00005D101231A4669460648FDF77FF92919F2
:1059B00001231A460348FDF779F9641CB442EDD37C
:1059C000F8BD00002053002070B505462C1D30485E
:1059D000006838B128462E4909688847064606B946
:1059E00070BD00BF2BA0E16B00F078F92DA0216AFB
:1059F00000F074F92FA0616A00F070F931A0A16A7B
:105A000000F06CF933A0E16A00F068F935A0216874
:105A100000F064F937A0616800F060F939A0A1686E
:105A200000F05CF93BA0E16800F058F93DA0216965
:105A300000F054F93FA0616900F050F941A0A1695C
:105A400000F04CF943A0E16900F048F945A0216B52
:105A500000F044F947A0616B00F040F949A0A16B48
:105A600000F03CF9287800F0040048B100F078FE1E
:105A70000646314647A000F031F9FFF717F902E07A
:105A80004CA000F02BF9FEF757FF00BFFEE7000027
:105A9000040100207073723A203078253038780A7B
:105AA000000000007230303A203078253038780A13
:105AB000000000007230313A203078253038780A02
:105AC000000000007230323A203078253038780AF1
:105AD000000000007230333A203078253038780AE0
